:020000040800F2
:1000000000500020A5010008E9010008E9010008EE
:10001000E9010008E9010008E9010008000000000A
:10002000000000000000000000000000E9010008DE
:10003000E901000800000000E9010008E9010008EA
:10004000E9010008E9010008E9010008E9010008E8
:10005000E9010008E9010008E9010008E9010008D8
:10006000E9010008E9010008E9010008E9010008C8
:10007000E9010008E9010008E9010008E9010008B8
:10008000E9010008E9010008E9010008E9010008A8
:10009000E9010008E9010008E9010008E901000898
:1000A000E9010008E9010008E9010008E901000888
:1000B000E9010008E9010008E9010008E901000878
:1000C000E9010008E9010008E9010008E901000868
:1000D000E9010008E9010008E9010008E901000858
:1000E000E9010008E9010008E9010008000000003A
:1000F0000000000000000000000000000000000000
:0C01000000000000000000005FF808F1A3
:10010C00064A936943F0040393614FF08832044B21
:10011C001A60DA6842F0FF02DA6070470090014022
:10012C0000080140014B9868C0B2704700080140BC
:10013C000B4A936943F0050393610A4B5A6822F00A
:10014C00E0625A605A6842F080625A604FF0333273
:10015C00C3F80428D3F80C28D2B2C3F80C28704783
:10016C000090014000000140034AD368DBB243EA2F
:10017C000023D360704700BF0008014008B5FFF7AB
:10018C00BFFFFFF7D5FFFFF7CDFFC043C0B2FFF7AE
:10019C00EBFFF8E770470000002103E00A4B5B58C7
:1001AC004350043109480A4B42189A42F6D3094A83
:1001BC0002E0002342F8043B074B9A42F9D3FFF7C5
:1001CC00E9FFFFF7DBFF7047EA01000800000020A1
:0E01DC00000000200000002000000020FEE7D0
:04000005080001A549
:00000001FF
